:10065E006E6F773A00642F6D696E007365743A00A1
:03066E0000000089
:0C001600010B00010900010A00010C00B0
:1005C600C2A7AF0D1205D7C2A4D2A5C2A6C2A7AFB5
:0105D6000D17
:1005D700E4FEEEC39F500CE4FD0DEDD3949440F977
:0305E7000E80EF94
:0105EA0022EE
:100638008F80C2A2C2A07F011205D7D2A01205D70F
:03064800C2A0222B
:10064B008F80D2A2C2A07F011205D7D2A01205D7EC
:03065B00C2A02218
:10059E00C2A17F381206387F011205D77F0E1206D0
:1005AE00387F011205D77F061206387F011205D754
:0805BE001206387F010205D787
:0A0681007F011206387F010205D741
:050006007F1C0206381A
:05000E007F1802063816
:0605EB00842430FBE4FD56
:0205F100AE0753
:1005F300ED7006EE2480FC8004EE24C0FCAF0412F0
:070603000638AF0302064BAD
:10056E00ED7006EF2480FC8007BD0104EF24C0FC73
:10057E00AF041206381202D6FFD3940040111206B1
:0F058E004B740129F9E43AFA7F011205D780E690
:01059D00223B
:1004CF00AC05AB07750D08C2A4C2A5C2A6C2A7EBA7
:1004DF0064017027AF041CEF6049D2A4C2A5C2A665
:1004EF001205C6C2A4C2A5D2A61205D3C2A4C2A524
:1004FF00C2A6D2A7AF0D1205D780D9EB7025AF04D6
:10050F001CEF601FC2A4C2A5C2A6D2A7AF0D1205D1
:10051F00D7C2A4C2A5D2A61205C6D2A4C2A51205DF
:04052F00D180DB227A
:0F0671007590F0AF90BFF0037F00228F087F01DC
:010680002257
:100315007F141205D77590F7E4FE120671EF70038E
:100325000203D474F7A806088002C313D8FC44F06E
:10033500F5900E530603E590540FFFE59054F064D5
:10034500F060E0E5082F1202EF03827703877B0355
:100355008C7D03917E0396B7039BBB03A0BD03A5CC
:10036500BE03AAD703AFDB03B4DD03B9DE03BEE7E3
:1003750003C3EB03C8ED03CDEE000003D2751310E4
:10038500805075130F804B75130E804675130D80C5
:100395004175130C803C75130B8037E4F5138032DF
:1003A500751309802D75130880287513078023752B
:1003B5001306801E751305801975130480147513B3
:1003C50003800F751302800A75130180058000757F
:0403D50013FFAF1350
:0103D9002201
:10060A00758911758C3C758AB0D2AFD2A9D28CD2B9
:08061A00A8D2AAD288D28A22DC
:10062200759850758920E4F587758DFD758BFDD21F
:060632008ED2ACD2AF2213
:0300030002068B67
:03068B00050A322B
:03000B0002046686
:10046600C0E0C0F0C0D075D000C003C004C005C055
:1004760006C007758C3C758AB0050CE50C64C8701F
:1004860037F50CE50A75F006A4F509C3950BD39468
:100496000640067D0A7F018019C3E509950BFFE436
:1004A6009400FEC3EF94FAEE6480947F50077D0AB1
:1004B600E4FF1204CF750A00D007D006D005D00499
:0904C600D003D0D0D0F0D0E03218
:0300130002068E54
:03068E00C2A332D2
:03002300020533A0
:0F053300C0E0C0D075D000C004C005C006C0072E
:10054200C2AF309805C29885990EE4FC85099930AE
:0F05520099FDC2997F011205D70CBC24EFD2AFDF
:0D056100D007D006D005D004D0D0D0E032B5
:10002600780F7C007D007BFF7A06796E7E007F0369
:100036001202B012060A12062212059E1206817BD1
:10004600FF7A06795EE4FDFF12056E7A067963E4AF
:10005600FD7F0912056E7A0679697D01E4FF1205B6
:100066006E7A0679637D017F0912056EE50975F0E2
:10007600647F061205EBE50975F06484E5F075F01A
:100086000A7F071205EBE50975F00A84E5F02430CE
:10009600FBE4FD7F081205F1120671EF7003020101
:1000A600D8120315AA07EA640E70317FC81205D765
:1000B600120671EF60FA120315AA07BA0B077D0A3A
:1000C6007F011204CFBA0C077D0AE4FF1204CFEABF
:1000D60064106008120671EF60D680F8EA640F704B
:1000E6004E7FC81205D7120671EF60FA120315AAE1
:1000F60007BA0B14751228AF121512EF600A7FC8E3
:100106001205D712000E80EFBA0C14751228AF1222
:100116001512EF600A7FC81205D712000680EFBAE3
:1001260010051206818008120671EF60B980F8EAA0
:10013600640D60030201D27FC81205D779067FC815
:100146001205D7120671EF60F5120315AA07EA60C9
:100156002C64016028EA64026023EA6403601EEAF4
:1001660064046019EA64056014EA6406600FEA64D0
:1001760007600AEA64086005EA64097021B90604A2
:100186008A0F800CB907048A108005B908028A1103
:10019600EA2430FAAF01FB7D011205F18023BA0B88
:1001A6000319801DBA0C03098017BA1014E51075DF
:1001B600F00AA4FFE50F75F064A42F2511F50B8056
:1001C6000B120671EF700302014480F5120671EFFF
:0A01D60070FA7FC81205D70200423C
:030000000203DA1E
:0C03DA00787FE4F6D8FD75811302042141
:1001E000E709F608DFFA8046E709F208DFFA803E01
:1001F00088828C83E709F0A3DFFA8032E309F608EE
:10020000DFFA8078E309F208DFFA807088828C8355
:10021000E309F0A3DFFA806489828A83E0A3F60809
:10022000DFFA805889828A83E0A3F208DFFA804CE3
:1002300080D280FA80C680D4806980F280338010BA
:1002400080A680EA809A80A880DA80E280CA803323
:1002500089828A83ECFAE493A3C8C582C8CCC5839B
:10026000CCF0A3C8C582C8CCC583CCDFE9DEE7806B
:100270000D89828A83E493A3F608DFF9ECFAA9F0EA
:10028000EDFB2289828A83ECFAE0A3C8C582C8CC40
:10029000C583CCF0A3C8C582C8CCC583CCDFEADE59
:1002A000E880DB89828A83E493A3F208DFF980CCBB
:1002B00088F0EF60010E4E60C388F0ED2402B404B4
:1002C0000050B9F582EB2402B4040050AF2323455B
:0602D0008223900230734E
:1002D600BB010689828A83E0225002E722BBFE0226
:0902E600E32289828A83E4932259
:1002EF00D083D082F8E4937012740193700DA3A39E
:1002FF0093F8740193F5828883E4737402936860B2
:06030F00EFA3A3A380DFB1
:1003E600020026E493A3F8E493A34003F68001F207
:1003F60008DFF48029E493A3F85407240CC8C33318
:10040600C4540F4420C8834004F456800146F6DFE6
:10041600E4800B0102040810204080900016E47E60
:10042600019360BCA3FF543F30E509541FFEE493DB
:10043600A360010ECF54C025E060A840B8E493A3A2
:10044600FAE493A3F8E493A3C8C582C8CAC583CACD
:10045600F0A3C8C582C8CAC583CADFE9DEE780BE85
:0100220000DD
:00000001FF
