:10075A006E6F773A00642F6D696E007365743A00A4
:03076A000000008C
:10063500012E00012C00012D00012F0020220900B0
:1006450000000000000000000000000000000000A5
:100655000000000000000000000000000000000095
:0406650000012B0065
:1006C200C2A7AF301206D3C2A4D2A5C2A6C2A7AF98
:0106D20030F7
:1006D300E4FEEEC39F500CE4FD0DEDD3949440F97A
:0306E3000E80EF97
:0106E60022F1
:100734008F80C2A2C2A07F011206D3D2A01206D318
:03074400C2A0222E
:100747008F80D2A2C2A07F011206D3D2A01206D3F5
:03075700C2A0221B
:10069A00C2A17F381207347F011206D37F0E1207D8
:1006AA00347F011206D37F061207347F011206D364
:0806BA001207347F010206D390
:0A0016007F011207347F010206D3B8
:050006007F1C0207341D
:05000E007F1802073419
:0606E700842430FBE4FD59
:0206ED00AE0756
:1006EF00ED7006EE2480FC8004EE24C0FCAF0412F3
:0706FF000734AF03020747B7
:10066A00ED7006EF2480FC8007BD0104EF24C0FC76
:10067A00AF0412073412030FFFD39400401112077C
:0F068A0047740129F9E43AFA7F011206D380E69A
:01069900223E
:040591007D0A7F015F
:10059500AC05AB07753008C2A4C2A5C2A6C2A7EBBD
:1005A50064017027AF041CEF6049D2A4C2A5C2A69E
:1005B5001206C2C2A4C2A5D2A61206CFC2A4C2A563
:1005C500C2A6D2A7AF301206D380D9EB7025AF04EF
:1005D5001CEF601FC2A4C2A5C2A6D2A7AF301206E7
:1005E500D3C2A4C2A5D2A61206C2D2A4C2A512061F
:0405F500CD80DB22B8
:0F076D007590F0AF90BFF0037F00228F087F01DF
:01077C00225A
:10034E007F141206D37590F7E4FE12076DEF70035B
:10035E0002040D74F7A806088002C313D8FC44F0FB
:10036E00F5900E530603E590540FFFE59054F0649C
:10037E00F060E0E5082F12032803BB7703C07B0370
:10038E00C57D03CA7E03CFB703D4BB03D9BD03DE3D
:10039E00BE03E3D703E8DB03EDDD03F2DE03F7E78D
:1003AE0003FCEB0401ED0406EE0000040B753510A2
:1003BE00805075350F804B75350E804675350D8026
:1003CE004175350C803C75350B8037E4F535803240
:1003DE00753509802D75350880287535078023758C
:1003EE003506801E753505801975350480147535F2
:1003FE0003800F753502800A753501800580007502
:04040E0035FFAF35D2
:0104120022C7
:10070600758911758C3C758AB0D2AFD2A9D28CD2BC
:08071600A8D2AAD288D28A22DF
:10071E00759850758920E4F587758DFD758BFDD222
:06072E008ED2ACD2AF2216
:03000300020020D8
:03002000052D3279
:03000B0002049F4D
:10049F00C0E0C0F0C0D075D000C003C004C005C01C
:1004AF0006C007758C3C758AB0052FE52F64C870A0
:1004BF004CF52FE52D75F006A4F52CC3952ED3948E
:1004CF0006400F052BE52BD3940D502E7D0A7F018F
:1004DF008025C3E52C952EFFE49400FEC3EF94FA1C
:1004EF00EE6480947F5013152BE52BC394004003CB
:1004FF001205917D0AE4FF120595752D00D007D0E6
:0E050F0006D005D004D003D0D0D0F0D0E0321A
:030013000205F9EA
:1005F900C0E0C0D075D000C002C003C004C005C0AF
:0306090006C00721
:10060C00E4FAC3740D952BFFEAC39F5006120591B3
:08061C000A80EF752E00C2A355
:10062400D007D006D005D004D003D002D0D0D0E07B
:010634003293
:0300230002051DB6
:10051D00C0E0C0F0C0D075D000C000C004C005C0A0
:03052D0006C007FE
:10053000C2AF309849C298AF99EF64317040E52C52
:1005400075F064842430F509E52C75F06484E5F0D9
:1005500075F00A842430F50AE52C75F00A84E5F07C
:100560002430F50B750C00E4FC74092CF8E6F599C1
:100570003099FDC2997F011206D30CBC04EBD2AFB7
:10058000D007D006D005D004D000D0D0D0F0D0E035
:010590003238
:1000260078317C007D007BFF7A07796A7E007F034A
:100036001202E912070612071E12069A1200167B12
:10004600FF7A07795AE4FDFF12066A7A07795FE4B8
:10005600FD7F0912066A7A0779657D01E4FF1206BB
:100066006A7A07795F7D017F0912066AE52C75F0C9
:10007600647F061206E7E52C75F06484E5F075F0FA
:100086000A7F071206E7E52C75F00A84E5F02430AE
:10009600FBE4FD7F081206ED12076DEF7003020107
:1000A600D912034EAA07EA640E70307FC81206D32F
:1000B60012076DEF60FA12034EAA07BA0B03120578
:1000C60091BA0C077D0AE4FF120595BA1005E4F50E
:1000D6002B800812076DEF60D780F8EA640F704E28
:1000E6007FC81206D312076DEF60FA12034EAA07F5
:1000F600BA0B14753428AF341534EF600A7FC81272
:1001060006D312000E80EFBA0C14753428AF3415DE
:1001160034EF600A7FC81206D312000680EFBA10C9
:1001260005120016800812076DEF60B980F8EA64C0
:100136000D60030201D17FC81206D379067FC8126B
:1001460006D312076DEF60F512034EAA07EA602C7C
:1001560064016028EA64026023EA6403601EEA64BC
:10016600046019EA64056014EA6406600FEA64072D
:10017600600AEA64086005EA64097021B906048A1F
:1001860031800CB907048A328005B908028A33EA3D
:100196002430FAAF01FB7D011206ED8023BA0B0372
:1001A60019801DBA0C03098017BA1014E53275F0D0
:1001B6000AA4FFE53175F064A42F2533F52E800BD4
:1001C60012076DEF700302014380F512076DEF60B1
:1001D6003A80F8E52E75F064842430FB7D017F06B5
:1001E6001206EDE52E75F06484E5F075F00A8424B8
:1001F60030FB7D027F071206EDE52E75F00A84E5D9
:10020600F02430FB7D037F081206ED7FC81206D36B
:03021600020042A1
:03000000020413E4
:0C041300787FE4F6D8FD75813502045AAC
:10021900E709F608DFFA8046E709F208DFFA803EC7
:1002290088828C83E709F0A3DFFA8032E309F608B4
:10023900DFFA8078E309F208DFFA807088828C831C
:10024900E309F0A3DFFA806489828A83E0A3F608D0
:10025900DFFA805889828A83E0A3F208DFFA804CAA
:1002690080D280FA80C680D4806980F28033801081
:1002790080A680EA809A80A880DA80E280CA8033EA
:1002890089828A83ECFAE493A3C8C582C8CCC58362
:10029900CCF0A3C8C582C8CCC583CCDFE9DEE78032
:1002A9000D89828A83E493A3F608DFF9ECFAA9F0B1
:1002B900EDFB2289828A83ECFAE0A3C8C582C8CC07
:1002C900C583CCF0A3C8C582C8CCC583CCDFEADE20
:1002D900E880DB89828A83E493A3F208DFF980CC82
:1002E90088F0EF60010E4E60C388F0ED2402B4047B
:1002F9000050B9F582EB2402B4040050AF23234522
:06030900822390026973DB
:10030F00BB010689828A83E0225002E722BBFE02EC
:09031F00E32289828A83E493221F
:10032800D083D082F8E4937012740193700DA3A364
:1003380093F8740193F5828883E473740293686078
:06034800EFA3A3A380DF78
:10041F00020026E493A3F8E493A34003F68001F2CD
:10042F0008DFF48029E493A3F85407240CC8C333DE
:10043F00C4540F4420C8834004F456800146F6DFAD
:10044F00E4800B0102040810204080900635E47E02
:10045F00019360BCA3FF543F30E509541FFEE493A2
:10046F00A360010ECF54C025E060A840B8E493A369
:10047F00FAE493A3F8E493A3C8C582C8CAC583CA94
:10048F00F0A3C8C582C8CAC583CADFE9DEE780BE4C
:010669000090
:00000001FF
