:1007AD006E6F773A00642F6D696E007365743A0051
:0307BD0000000039
:10076D00011000010E00010F00011100040900002D
:05077D000000010D0069
:1006DC00C2A4AF121206EDC2A1D2A2C2A3C2A4AF91
:0106EC0012FB
:1006ED00E4FEEEC39F500CE4FD0DEDD3949440F960
:0306FD000E80EF7D
:0107000022D6
:10078300C2A7C2A5C2A68F807F011206EDD2A51211
:0507930006EDC2A522E5
:10079800D2A7C2A5C2A68F807F011206EDD2A512EC
:0507A80006EDC2A522D0
:1006B400C2A67F381207837F011206ED7F0E120750
:1006C400837F011206ED7F061207837F011206ED78
:0806D4001207837F010206ED0D
:0A0016007F011207837F010206ED4F
:050006007F1C020783CE
:05000E007F18020783CA
:06070100842430FBE4FD3E
:02070700AE073B
:10070900ED7006EE2480FC8004EE24C0FCAF0412D8
:070719000783AF03020798FC
:10068400ED7006EF2480FC8007BD0104EF24C0FC5C
:10069400AF04120783120311FFD394004011120711
:0F06A40098740129F9E43AFA7F011206ED80E615
:0106B3002224
:0405E0007D0A7F0110
:1005E400AC05AB07751208C2A1C2A2C2A3C2A4EB98
:1005F40064017027AF041CEF6049D2A1C2A2C2A358
:100604001206DCC2A1C2A2D2A31206E9C2A1C2A2EE
:10061400C2A3D2A4AF121206ED80D9EB7025AF04A9
:100624001CEF601FC2A1C2A2C2A3D2A4AF121206C1
:10063400EDC2A1C2A2D2A31206DCD2A1C2A21206AA
:04064400E780DB224E
:0F07C0007590F0AF90BFF0037F00228F087F018C
:0107CF002207
:100417007F141206ED7590F7E4FE1207C0EF700324
:100427000204D674F7A806088002C313D8FC44F068
:10043700F5900E530603E590540FFFE59054F064D2
:10044700F060E0E5082F12032A04847704897B040F
:100457008E7D04937E0498B7049DBB04A2BD04A7B8
:10046700BE04ACD704B1DB04B6DD04BBDE04C0E7D1
:1004770004C5EB04CAED04CFEE000004D4751810D0
:10048700805075180F804B75180E804675180D80B3
:100497004175180C803C75180B8037E4F5188032CD
:1004A700751809802D751808802875180780237519
:1004B7001806801E7518058019751804801475189C
:1004C70003800F751802800A751801800580007572
:0404D70018FFAF1843
:0104DB0022FE
:10073F00758911758C3C758AB0D2AFD2A9D28CD283
:08074F00A8D2AAD288D28A22A6
:10075700759850758920E4F587758DFD758BFDD2E9
:060767008ED2ACD2AF22DD
:03000300020720D1
:10072000C0E0C0D075D000C005C006C007050F7F6F
:0F073000641206EDD007D006D005D0D0D0E0324D
:03000B0002056883
:10056800C0E0C0D075D000C003C004C005C006C03C
:1005780007758C3C758AB00511E51164B07002747A
:10058800047046F511850F0EC3E50E9510D3940639
:10059800400FE50DD3940D502D050D7D0A7F018088
:1005A80022C3E50E9510FFE49400FEC3EF94FAEE23
:1005B8006480947F5010E50DC394004009150D7DAB
:1005C8000AE4FF1205E4750F00D007D006D005D065
:0805D80004D003D0D0D0E032C2
:030013000206489A
:10064800C0E0C0D075D000C002C003C004C005C05F
:0306580006C007D2
:10065B00E4FAC3740D950DFFEAC39F50061205E033
:08066B000A80EF751000C2A027
:10067300D007D006D005D004D003D002D0D0D0E02C
:010683003244
:0300230002035085
:10035000C0E0C0F0C0D075D000C000C003C004C071
:0503600005C006C00706
:10036500C2AF209803020402C298AC99EC643170C4
:1003750042E50E75F064842430F509E50E75F064E8
:1003850084E5F075F00A842430F50AE50E75F00A67
:1003950084E5F02430F50B750C00E4FB74092BF8AB
:1003A500E6F5993099FDC2997F011206ED0BBB0464
:1003B500EB804ABC3204D2A08043BC330FE50DD399
:1003C500940D5039050D7D0A7F018010BC3412E56E
:1003D5000DC394004027150D7D0AE4FF1205E48046
:0403E5001CBC3519EE
:1003E900751300C3740D950DFFE513C39F500712D4
:0903F90005E0051380ED7510000C
:02040200D2AF77
:10040400D007D006D005D004D003D000D0D0D0F08F
:03041400D0E03203
:1000260078147C007D007BFF7A0779BD7E007F0314
:100036001202EBD2A01206B412073F1207571200A3
:10004600167BFF7A0779ADE4FDFF1206847A0779FD
:10005600B2E4FD7F091206847A0779B87D01E4FFD0
:100066001206847A0779B27D017F09120684E50EAD
:1000760075F0647F06120701E50E75F06484E5F0FD
:1000860075F00A7F07120701E50E75F00A84E5F0A0
:100096002430FBE4FD7F081207071207C0EF700348
:1000A6000201DB120417AA07EA640E70307FC81239
:1000B60006ED1207C0EF60FA120417AA07BA0B037F
:1000C6001205E0BA0C077D0AE4FF1205E4BA100532
:1000D600E4F50D80081207C0EF60D780F8EA640FD8
:1000E600704E7FC81206ED1207C0EF60FA120417B1
:1000F600AA07BA0B14751728AF171517EF600A7FF2
:10010600C81206ED12000E80EFBA0C14751728AF50
:10011600171517EF600A7FC81206ED12000680EF6A
:10012600BA100512001680081207C0EF60B980F8F1
:10013600EA640D60030201D37FC81206ED79067FDB
:10014600C81206ED1207C0EF60F5120417AA07EAF7
:10015600602C64016028EA64026023EA6403601E7E
:10016600EA64046019EA64056014EA6406600FEA4A
:100176006407600AEA64086005EA64097021B90642
:10018600048A14800CB907048A158005B908028A06
:1001960016EA2430FAAF01FB7D011207078023BA65
:1001A6000B0319801DBA0C03098017BA1014E51544
:1001B60075F00AA4FFE51475F064A42F2516F51052
:1001C600800B1207C0EF700302014580F51207C0CD
:1001D600EF603A80F8E51075F064842430FB7D0109
:1001E6007F06120707E51075F06484E5F075F00ADE
:1001F600842430FB7D027F07120707E51075F00A9D
:1002060084E5F02430FB7D037F081207077FC812C0
:0502160006ED020044AA
:030000000204DC1B
:0C04DC00787FE4F6D8FD75811802052336
:10021B00E709F608DFFA8046E709F208DFFA803EC5
:10022B0088828C83E709F0A3DFFA8032E309F608B2
:10023B00DFFA8078E309F208DFFA807088828C831A
:10024B00E309F0A3DFFA806489828A83E0A3F608CE
:10025B00DFFA805889828A83E0A3F208DFFA804CA8
:10026B0080D280FA80C680D4806980F2803380107F
:10027B0080A680EA809A80A880DA80E280CA8033E8
:10028B0089828A83ECFAE493A3C8C582C8CCC58360
:10029B00CCF0A3C8C582C8CCC583CCDFE9DEE78030
:1002AB000D89828A83E493A3F608DFF9ECFAA9F0AF
:1002BB00EDFB2289828A83ECFAE0A3C8C582C8CC05
:1002CB00C583CCF0A3C8C582C8CCC583CCDFEADE1E
:1002DB00E880DB89828A83E493A3F208DFF980CC80
:1002EB0088F0EF60010E4E60C388F0ED2402B40479
:1002FB000050B9F582EB2402B4040050AF23234520
:06030B00822390026B73D7
:10031100BB010689828A83E0225002E722BBFE02EA
:09032100E32289828A83E493221D
:10032A00D083D082F8E4937012740193700DA3A362
:10033A0093F8740193F5828883E473740293686076
:06034A00EFA3A3A380DF76
:1004E800020026E493A3F8E493A34003F68001F204
:1004F80008DFF48029E493A3F85407240CC8C33315
:10050800C4540F4420C8834004F456800146F6DFE3
:10051800E4800B010204081020408090076DE47EFF
:10052800019360BCA3FF543F30E509541FFEE493D8
:10053800A360010ECF54C025E060A840B8E493A39F
:10054800FAE493A3F8E493A3C8C582C8CAC583CACA
:10055800F0A3C8C582C8CAC583CADFE9DEE780BE82
:010782000076
:00000001FF
