:10076B006E6F773A00642F6D696E007365743A0093
:03077B000000007B
:10064200012E00012C00012D00012F0020220900A3
:100652000000000000000000000000000000000098
:100662000000000000000000000000000000000088
:0406720000012B0058
:1006CF00C2A4AF301206E0C2A1D2A2C2A3C2A4AF8D
:0106DF0030EA
:1006E000E4FEEEC39F500CE4FD0DEDD3949440F96D
:0306F0000E80EF8A
:0106F30022E4
:10074100C2A7C2A5C2A68F807F011206E0D2A51260
:0507510006E0C2A52234
:10075600D2A7C2A5C2A68F807F011206E0D2A5123B
:0507660006E0C2A5221F
:1006A700C2A67F381207417F011206E07F0E1207AC
:1006B700417F011206E07F061207417F011206E023
:0806C7001207417F010206E069
:0A0016007F011207417F010206E09E
:050006007F1C02074110
:05000E007F180207410C
:0606F400842430FBE4FD4C
:0206FA00AE0749
:1006FC00ED7006EE2480FC8004EE24C0FCAF0412E6
:07070C000741AF030207568D
:10067700ED7006EF2480FC8007BD0104EF24C0FC69
:10068700AF04120741120311FFD394004011120760
:0F06970056740129F9E43AFA7F011206E080E671
:0106A6002231
:04059E007D0A7F0152
:1005A200AC05AB07753008C2A1C2A2C2A3C2A4EBBC
:1005B20064017027AF041CEF6049D2A1C2A2C2A39A
:1005C2001206CFC2A1C2A2D2A31206DCC2A1C2A24B
:1005D200C2A3D2A4AF301206E080D9EB7025AF04DB
:1005E2001CEF601FC2A1C2A2C2A3D2A4AF301206E6
:1005F200E0C2A1C2A2D2A31206CFD2A1C2A2120607
:04060200DA80DB229D
:0F077E007590F0AF90BFF0037F00228F087F01CE
:01078D002249
:100350007F141206E07590F7E4FE12077EEF70033B
:1003600002040F74F7A806088002C313D8FC44F0F7
:10037000F5900E530603E590540FFFE59054F0649A
:10038000F060E0E5082F12032A03BD7703C27B0368
:10039000C77D03CC7E03D1B703D6BB03DBBD03E02F
:1003A000BE03E5D703EADB03EFDD03F4DE03F9E781
:1003B00003FEEB0403ED0408EE0000040D75351098
:1003C000805075350F804B75350E804675350D8024
:1003D0004175350C803C75350B8037E4F53580323E
:1003E000753509802D75350880287535078023758A
:1003F0003506801E753505801975350480147535F0
:1004000003800F753502800A7535018005800075FF
:0404100035FFAF35D0
:0104140022C5
:10071300758911758C3C758AB0D2AFD2A9D28CD2AF
:08072300A8D2AAD288D28A22D2
:10072B00759850758920E4F587758DFD758BFDD215
:06073B008ED2ACD2AF2209
:03000300020020D8
:03002000052D3279
:03000B00020520CB
:10052000C0E0C0F0C0D075D000C003C004C005C09A
:1005300006C007758C3C758AB0052FE52F64C8701E
:100540004CF52FE52D75F006A4F52CC3952ED3940C
:1005500006400F052BE52BD3940D502E7D0A7F010D
:100560008025C3E52C952EFFE49400FEC3EF94FA9A
:10057000EE6480947F5013152BE52BC39400400349
:1005800012059E7D0AE4FF1205A2752D00D007D04A
:0E05900006D005D004D003D0D0D0F0D0E03299
:03001300020606DC
:10060600C0E0C0D075D000C002C003C004C005C0A1
:0306160006C00714
:10061900E4FAC3740D952BFFEAC39F500612059E99
:080629000A80EF752E00C2A04B
:10063100D007D006D005D004D003D002D0D0D0E06E
:010641003286
:030023000204A133
:1004A100C0E0C0F0C0D075D000C000C003C004C01F
:0504B10005C006C007B4
:1004B600C2AF309850C298AC99EC64317042E52CCA
:1004C60075F064842430F509E52C75F06484E5F054
:1004D60075F00A842430F50AE52C75F00A84E5F0F7
:1004E6002430F50B750C00E4FB74092BF8E6F5993E
:1004F6003099FDC2997F011206E00BBB04EB800523
:07050600BC3202B2A0D2AF2B
:10050D00D007D006D005D004D003D000D0D0D0F085
:03051D00D0E032F9
:1000260078317C007D007BFF7A07797B7E007F0339
:100036001202EBD2A01206A712071312072B120008
:10004600167BFF7A07796BE4FDFF1206777A07794C
:1000560070E4FD7F091206777A0779767D01E4FF61
:100066001206777A0779707D017F09120677E52CEB
:1000760075F0647F061206F4E52C75F06484E5F0ED
:1000860075F00A7F071206F4E52C75F00A84E5F090
:100096002430FBE4FD7F081206FA12077EEF700398
:1000A6000201DB120350AA07EA640E70307FC81201
:1000B60006E012077EEF60FA120350AA07BA0B0396
:1000C60012059EBA0C077D0AE4FF1205A2BA1005B6
:1000D600E4F52B800812077EEF60D780F8EA640FFC
:1000E600704E7FC81206E012077EEF60FA120350C8
:1000F600AA07BA0B14753428AF341534EF600A7F9B
:10010600C81206E012000E80EFBA0C14753428AF40
:10011600341534EF600A7FC81206E012000680EF3D
:10012600BA1005120016800812077EEF60B980F833
:10013600EA640D60030201D37FC81206E079067FE8
:10014600C81206E012077EEF60F5120350AA07EA0E
:10015600602C64016028EA64026023EA6403601E7E
:10016600EA64046019EA64056014EA6406600FEA4A
:100176006407600AEA64086005EA64097021B90642
:10018600048A31800CB907048A328005B908028ACC
:1001960033EA2430FAAF01FB7D011206FA8023BA56
:1001A6000B0319801DBA0C03098017BA1014E53227
:1001B60075F00AA4FFE53175F064A42F2533F52EFA
:1001C600800B12077EEF700302014580F512077E51
:1001D600EF603A80F8E52E75F064842430FB7D01EB
:1001E6007F061206FAE52E75F06484E5F075F00ACE
:1001F600842430FB7D027F071206FAE52E75F00A8D
:1002060084E5F02430FB7D037F081206FA7FC812CE
:0502160006E0020044B7
:03000000020415E2
:0C041500787FE4F6D8FD75813502045CA8
:10021B00E709F608DFFA8046E709F208DFFA803EC5
:10022B0088828C83E709F0A3DFFA8032E309F608B2
:10023B00DFFA8078E309F208DFFA807088828C831A
:10024B00E309F0A3DFFA806489828A83E0A3F608CE
:10025B00DFFA805889828A83E0A3F208DFFA804CA8
:10026B0080D280FA80C680D4806980F2803380107F
:10027B0080A680EA809A80A880DA80E280CA8033E8
:10028B0089828A83ECFAE493A3C8C582C8CCC58360
:10029B00CCF0A3C8C582C8CCC583CCDFE9DEE78030
:1002AB000D89828A83E493A3F608DFF9ECFAA9F0AF
:1002BB00EDFB2289828A83ECFAE0A3C8C582C8CC05
:1002CB00C583CCF0A3C8C582C8CCC583CCDFEADE1E
:1002DB00E880DB89828A83E493A3F208DFF980CC80
:1002EB0088F0EF60010E4E60C388F0ED2402B40479
:1002FB000050B9F582EB2402B4040050AF23234520
:06030B00822390026B73D7
:10031100BB010689828A83E0225002E722BBFE02EA
:09032100E32289828A83E493221D
:10032A00D083D082F8E4937012740193700DA3A362
:10033A0093F8740193F5828883E473740293686076
:06034A00EFA3A3A380DF76
:10042100020026E493A3F8E493A34003F68001F2CB
:1004310008DFF48029E493A3F85407240CC8C333DC
:10044100C4540F4420C8834004F456800146F6DFAB
:10045100E4800B0102040810204080900642E47EF3
:10046100019360BCA3FF543F30E509541FFEE493A0
:10047100A360010ECF54C025E060A840B8E493A367
:10048100FAE493A3F8E493A3C8C582C8CAC583CA92
:10049100F0A3C8C582C8CAC583CADFE9DEE780BE4A
:010676000083
:00000001FF
