:100791006E6F773A00642F6D696E007365743A006D
:0307A10000000055
:10075100011000010E00010F000111000409000049
:050761000000010D0085
:1006DF00C2A4AF121206F0C2A1D2A2C2A3C2A4AF8B
:0106EF0012F8
:1006F000E4FEEEC39F500CE4FD0DEDD3949440F95D
:030700000E80EF79
:0107030022D3
:10076700C2A7C2A5C2A68F807F011206F0D2A5122A
:0507770006F0C2A522FE
:10077C00D2A7C2A5C2A68F807F011206F0D2A51205
:05078C0006F0C2A522E9
:1006B700C2A67F381207677F011206F07F0E120766
:1006C700677F011206F07F061207677F011206F0A7
:0806D7001207677F010206F023
:0A0016007F011207677F010206F068
:050006007F1C020767EA
:05000E007F18020767E6
:06070400842430FBE4FD3B
:02070A00AE0738
:10070C00ED7006EE2480FC8004EE24C0FCAF0412D5
:07071C000767AF0302077C31
:10068700ED7006EF2480FC8007BD0104EF24C0FC59
:10069700AF04120767120311FFD39400401112072A
:0F06A7007C740129F9E43AFA7F011206F080E62B
:0106B6002221
:0405E3007D0A7F010D
:1005E700AC05AB07751208C2A1C2A2C2A3C2A4EB95
:1005F70064017027AF041CEF6049D2A1C2A2C2A355
:100607001206DFC2A1C2A2D2A31206ECC2A1C2A2E5
:10061700C2A3D2A4AF121206F080D9EB7025AF04A3
:100627001CEF601FC2A1C2A2C2A3D2A4AF121206BE
:10063700F0C2A1C2A2D2A31206DFD2A1C2A21206A1
:04064700EA80DB2248
:0F07A4007590F0AF90BFF0037F00228F087F01A8
:0107B3002223
:100417007F141206F07590F7E4FE1207A4EF70033D
:100427000204D674F7A806088002C313D8FC44F068
:10043700F5900E530603E590540FFFE59054F064D2
:10044700F060E0E5082F12032A04847704897B040F
:100457008E7D04937E0498B7049DBB04A2BD04A7B8
:10046700BE04ACD704B1DB04B6DD04BBDE04C0E7D1
:1004770004C5EB04CAED04CFEE000004D4751810D0
:10048700805075180F804B75180E804675180D80B3
:100497004175180C803C75180B8037E4F5188032CD
:1004A700751809802D751808802875180780237519
:1004B7001806801E7518058019751804801475189C
:1004C70003800F751802800A751801800580007572
:0404D70018FFAF1843
:0104DB0022FE
:10072300758911758C3C758AB0D2AFD2A9D28CD29F
:08073300A8D2AAD288D28A22C2
:10073B00759850758920E4F587758DFD758BFDD205
:06074B008ED2ACD2AF22F9
:03000300020020D8
:03002000050F3297
:03000B0002056883
:10056800C0E0C0F0C0D075D000C003C004C005C052
:1005780006C007758C3C758AB00511E51164C87012
:1005880049F511E50F75F006A4F50EC39510D3943F
:1005980006400FE50DD3940D502D050D7D0A7F0102
:1005A8008022C3E50E9510FFE49400FEC3EF94FA91
:1005B800EE6480947F5010E50DC394004009150D3A
:1005C8007D0AE4FF1205E7750F00D007D006D005B5
:0B05D800D004D003D0D0D0F0D0E0322F
:0300130002064B97
:10064B00C0E0C0D075D000C002C003C004C005C05C
:03065B0006C007CF
:10065E00E4FAC3740D950DFFEAC39F50061205E32D
:08066E000A80EF751000C2A024
:10067600D007D006D005D004D003D002D0D0D0E029
:010686003241
:0300230002035085
:10035000C0E0C0F0C0D075D000C000C003C004C071
:0503600005C006C00706
:10036500C2AF209803020402C298AC99EC643170C4
:1003750042E50E75F064842430F509E50E75F064E8
:1003850084E5F075F00A842430F50AE50E75F00A67
:1003950084E5F02430F50B750C00E4FB74092BF8AB
:1003A500E6F5993099FDC2997F011206F00BBB0461
:1003B500EB804ABC3204D2A08043BC330FE50DD399
:1003C500940D5039050D7D0A7F018010BC3412E56E
:1003D5000DC394004027150D7D0AE4FF1205E78043
:0403E5001CBC3519EE
:1003E900751300C3740D950DFFE513C39F500712D4
:0903F90005E3051380ED75100009
:02040200D2AF77
:10040400D007D006D005D004D003D000D0D0D0F08F
:03041400D0E03203
:1000260078147C007D007BFF7A0779A17E007F0330
:100036001202EBD2A01206B712072312073B1200D8
:10004600167BFF7A077991E4FDFF1206877A077916
:1000560096E4FD7F091206877A07799C7D01E4FF05
:100066001206877A0779967D017F09120687E50EC3
:1000760075F0647F06120704E50E75F06484E5F0FA
:1000860075F00A7F07120704E50E75F00A84E5F09D
:100096002430FBE4FD7F0812070A1207A4EF700361
:1000A6000201DB120417AA07EA640E70307FC81239
:1000B60006F01207A4EF60FA120417AA07BA0B0398
:1000C6001205E3BA0C077D0AE4FF1205E7BA10052C
:1000D600E4F50D80081207A4EF60D780F8EA640FF4
:1000E600704E7FC81206F01207A4EF60FA120417CA
:1000F600AA07BA0B14751728AF171517EF600A7FF2
:10010600C81206F012000E80EFBA0C14751728AF4D
:10011600171517EF600A7FC81206F012000680EF67
:10012600BA100512001680081207A4EF60B980F80D
:10013600EA640D60030201D37FC81206F079067FD8
:10014600C81206F01207A4EF60F5120417AA07EA10
:10015600602C64016028EA64026023EA6403601E7E
:10016600EA64046019EA64056014EA6406600FEA4A
:100176006407600AEA64086005EA64097021B90642
:10018600048A14800CB907048A158005B908028A06
:1001960016EA2430FAAF01FB7D0112070A8023BA62
:1001A6000B0319801DBA0C03098017BA1014E51544
:1001B60075F00AA4FFE51475F064A42F2516F51052
:1001C600800B1207A4EF700302014580F51207A405
:1001D600EF603A80F8E51075F064842430FB7D0109
:1001E6007F0612070AE51075F06484E5F075F00ADB
:1001F600842430FB7D027F0712070AE51075F00A9A
:1002060084E5F02430FB7D037F0812070A7FC812BD
:0502160006F0020044A7
:030000000204DC1B
:0C04DC00787FE4F6D8FD75811802052336
:10021B00E709F608DFFA8046E709F208DFFA803EC5
:10022B0088828C83E709F0A3DFFA8032E309F608B2
:10023B00DFFA8078E309F208DFFA807088828C831A
:10024B00E309F0A3DFFA806489828A83E0A3F608CE
:10025B00DFFA805889828A83E0A3F208DFFA804CA8
:10026B0080D280FA80C680D4806980F2803380107F
:10027B0080A680EA809A80A880DA80E280CA8033E8
:10028B0089828A83ECFAE493A3C8C582C8CCC58360
:10029B00CCF0A3C8C582C8CCC583CCDFE9DEE78030
:1002AB000D89828A83E493A3F608DFF9ECFAA9F0AF
:1002BB00EDFB2289828A83ECFAE0A3C8C582C8CC05
:1002CB00C583CCF0A3C8C582C8CCC583CCDFEADE1E
:1002DB00E880DB89828A83E493A3F208DFF980CC80
:1002EB0088F0EF60010E4E60C388F0ED2402B40479
:1002FB000050B9F582EB2402B4040050AF23234520
:06030B00822390026B73D7
:10031100BB010689828A83E0225002E722BBFE02EA
:09032100E32289828A83E493221D
:10032A00D083D082F8E4937012740193700DA3A362
:10033A0093F8740193F5828883E473740293686076
:06034A00EFA3A3A380DF76
:1004E800020026E493A3F8E493A34003F68001F204
:1004F80008DFF48029E493A3F85407240CC8C33315
:10050800C4540F4420C8834004F456800146F6DFE3
:10051800E4800B0102040810204080900751E47E1B
:10052800019360BCA3FF543F30E509541FFEE493D8
:10053800A360010ECF54C025E060A840B8E493A39F
:10054800FAE493A3F8E493A3C8C582C8CAC583CACA
:10055800F0A3C8C582C8CAC583CADFE9DEE780BE82
:010766000092
:00000001FF
